S017000070776D5F6D6F746F725F73706565642E73726563B9
S11300000C9434000C943E000C943E000C943E007E
S11300100C943E000C943E000C943E000C943E0064
S11300200C943E000C943E000C943E000C943E0054
S11300300C943E000C943E000C943E000C943E0044
S11300400C943E000C943E000C943E000C943E0034
S11300500C943E000C943E000C943E000C943E0024
S11300600C943E000C943E0011241FBECFEFD8E048
S1130070DEBFCDBF0E9452000C945B000C940000C4
S113008084B5836084BD8CE488BD84B5806284BDFE
S113009084B58F7E84BD85B5816085BD85B5897F36
S11300A085BD08958AB180668AB98BB18F7B8BB97F
S10D00B00E944000FFCFF894FFCF38
S9030000FC
