S01C0000747261666669635F696E74657272757074696F6E2E7372656397
S11300000C9434000C943E000C943E000C943E007E
S11300100C943E000C943E000C943E000C943E0064
S11300200C943E000C943E000C943E000C943E0054
S11300300C943E000C943E000C943E000C943E0044
S11300400C943E000C943E000C943E000C943E0034
S11300500C943E000C943E000C943E000C943E0024
S11300600C943E000C943E0011241FBECFEFD8E048
S1130070DEBFCDBF0E9492000C94DB000C94000004
S11300808BB182608BB98BB1837F8BB908958BB1AF
S113009084608BB98BB1857F8BB908958BB18860EF
S11300A08BB98BB1897F8BB908958BB180628BB981
S11300B08BB18F7B8BB908958BB180648BB98BB175
S11300C08F7D8BB908958BB18F798BB908950E9478
S11300D04E000E9455002AEA36EE86E991E021504E
S11300E0304080409040D9F700000E94630024E52E
S11300F03DEC8DE293E02150304080409040D9F7B0
S113010000C000C000000E945C002AEA36EE86E9C6
S113011091E02150304080409040D9F700000E9487
S1130120630008958AB18E668AB984B18F7D84B9DB
S113013085B1806285B90E94400080E090E00CC0E7
S1130140EFE9FFE03197F1F700C000001D9903C00B
S11301500E94670005C00196803AFFE09F0784F380
S11301600E94470080E090E00CC0EFE9FFE0319787
S1130170F1F700C000001D9903C00E94670005C08C
S11301800196803AFFE09F0784F30E944E0080E0CE
S113019090E00CC0EFE9FFE03197F1F700C00000F8
S11301A01D9903C00E946700C6CF0196803AFFE004
S10D01B09F0784F3C0CFF894FFCF3B
S9030000FC
