S01C000074696D6572305F64656C61795F4354436D6F64652E737265636B
S11300000C9434000C943E000C943E000C943E007E
S11300100C943E000C943E000C943E000C943E0064
S11300200C943E000C943E000C943E000C943E0054
S11300300C943E000C943E000C943E000C943E0044
S11300400C943E000C943E000C943E000C943E0034
S11300500C943E000C943E000C943E000C943E0024
S11300600C943E000C943E0011241FBECFEFD8E048
S1130070DEBFCDBF0E9464000C946E000C9400009F
S113008016BC84B5826084BD84B58E7F84BD87EC44
S113009087BD85B5897F85BD85B5816085BD40E017
S11300A050E0BA0109C0A99BFECF85B3826085BB2D
S11300B04F5F5F4F6F4F7F4F403888E3580781E0B1
S11300C06807710584F308958AB180628AB99BB187
S11300D080E289278BB90E944000F9CFF894FFCFC2
S9030000FC
