S01700004C43445F696E746572666163696E672E7372656351
S11300000C9434000C9449000C9449000C9449005D
S11300100C9449000C9449000C9449000C94490038
S11300200C9449000C9449000C9449000C94490028
S11300300C9449000C9449000C9449000C94490018
S11300400C9449000C9449000C9449000C94490008
S11300500C9449000C9449000C9449000C944900F8
S11300600C9449000C94490011241FBECFEFD8E032
S1130070DEBFCDBF11E0A0E0B1E0E8E3F2E002C0F2
S113008005900D92A231B107D9F70E9406010C9494
S11300901A010C94000085B1886085B985E08A95C1
S11300A0F1F7000085B1877F85B987EC90E001976F
S11300B0F1F700C00000089595B19F7E95B92BB16A
S11300C030E1839FC00111242F70822B8BB90E94D1
S11300D04B008FE39FE10197F1F700C00000089502
S11300E0CF93C82F85B18F7E85B98BB18F709C2F2C
S11300F0907F892B8BB90E944B002BB130E1C39FB9
S1130100C0011124922F9F70892B8BB90E944B0040
S11301108FE39FE10197F1F700C00000CF910895AC
S1130120CF93C82F85B1806185B98BB18F709C2F17
S1130130907F892B8BB90E944B002BB130E1C39F78
S1130140C0011124922F9F70892B8BB90E944B0000
S11301508FE39FE10197F1F700C00000CF9108956C
S11301602FEF89EF90E0215080409040E1F700C0EC
S1130170000085B1887085B983E00E945C008FE13E
S11301809EE40197F1F700C0000083E00E945C0048
S113019087E592E00197F1F700C0000083E00E9438
S11301A05C0087E592E00197F1F700C0000082E06F
S11301B00E945C0088E20E9470008CE00E94700043
S11301C086E00E94700081E00E9470008FE39FE14E
S11301D00197F1F700C000000895811104C06F7009
S11301E080E8860F03C06F7080EC860F0E94700059
S11301F00895CF93DF93EC0103C00E9490002196F1
S113020088818111FACFDF91CF91089580EF8AB967
S113021084B1886184B90E94B00080E091E00E94BA
S1130220F90060E081E00E94ED0088E091E00E9426
S10B0230F900FFCFF894FFCFA1
S1130238415652204C4344004C6561726E696E67A6
S10502480000B0
S9030000FC
