:100000000C9434000C943E000C943E000C943E0082
:100010000C943E000C943E000C943E000C943E0068
:100020000C943E000C943E000C943E000C943E0058
:100030000C943E000C943E000C943E000C943E0048
:100040000C943E000C943E000C943E000C943E0038
:100050000C943E000C943E000C943E000C943E0028
:100060000C943E000C943E0011241FBECFEFD8E04C
:10007000DEBFCDBF0E9456000C9460000C940000BF
:1000800016BC84B58C7F84BD85B5836085BD20E0BA
:1000900030E007C0A89BFECF85B3816085BB2F5F92
:1000A0003F4F203D83E03807ACF308958AB180626A
:1000B0008AB99BB180E289278BB90E944000F9CFB1
:0400C000F894FFCFE2
:00000001FF
