:100000000C9434000C9449000C9449000C94490061
:100010000C9449000C9449000C9449000C9449003C
:100020000C9449000C9449000C9449000C9449002C
:100030000C9449000C9449000C9449000C9449001C
:100040000C9449000C9449000C9449000C9449000C
:100050000C9449000C9449000C9449000C944900FC
:100060000C9449000C94490011241FBECFEFD8E036
:10007000DEBFCDBF11E0A0E0B1E0ECEAF9E002C0E4
:1000800005900D92A235B107D9F70E9487000C9414
:10009000D4040C94000084B18C6284B984B18F7E46
:1000A00084B98CB581658CBD8CB5857F8CBD089578
:1000B0008EBD0DB407FEFDCF8EB5089585B18B7F43
:1000C00085B9089585B1846085B90895CF93C82F07
:1000D0000E945E008C2F0E9458008AEA0E945800FD
:1000E000C82F0E9462008C2FCF910895CF93DF9389
:1000F000D82FC62F0E945E008D2F0E9458008C2F93
:100100000E9458000E946200DF91CF910895CF9322
:10011000DF93CDB7DEB72A970FB6F894DEBF0FBED8
:10012000CDBF0E94AC010E944B0080ED0E94660092
:100130000E94070280E091E00E94C30167E284E729
:100140000E9476000E945E0088E80E94580010E03D
:100150000DC0E12EF12C8AEA0E945800E1E0F0E0A7
:10016000EC0FFD1FEE0DFF1D80831F5F163088F31F
:100170000E9462000A8110E0102F00278981082B5D
:100180002C80312C322C22248B81282A8E8190E0E5
:10019000982F88272D813C01622A0E945E008AEFF9
:1001A0000E9458008AEA0E945800C82E8AEA0E94DB
:1001B0005800F82E8AEA0E945800B82E0E94620069
:1001C0008C2D90E0A0E0B0E0072E7CE0880F991F16
:1001D000AA1FBB1F7A95D1F7702DCF2CD12CE12C03
:1001E000F12CCC0CDD1CEE1CFF1CCC0CDD1CEE1C21
:1001F000FF1CCC0CDD1CEE1CFF1CCC0CDD1CEE1C13
:10020000FF1CC82AD92AEA2AFB2AB694B694B694C7
:10021000B694CB2889E191E00E94C301C701B601E1
:100220000E94EA018AE00E94BC0188E291E00E94FB
:10023000C301C8010E94D0018AE00E94BC01C10133
:100240000E94D0018AE00E94BC01C3010E94D0013B
:100250008AE00E94BC01C701B6010E9473034B01F2
:100260005C0120E030E040E858E30E9401046B01AB
:100270007C01B80180E090E00E94730320E030E050
:1002800040E85AE30E9401049B01AC01C701B6019A
:100290000E9465026F83788789879A87B101032C52
:1002A000000C880B990B0E9475036B017C019B016C
:1002B000AC016F81788589859A850E9401046F83DE
:1002C000788789879A8720E030E040E057E3C501CE
:1002D000B4010E9401044B015C0120E030E040E0E9
:1002E00059E3C701B6010E9401049B01AC01C5019D
:1002F000B4010E9465026B017C01B301072C000C64
:10030000880B990B0E9475039B01AC01C701B601D4
:100310000E9401049B01AC016F81788589859A85D3
:100320000E94660220E030E040EA55E40E94D202DA
:100330006B017C018FE391E00E94C301C701B6010C
:100340000E9425022FEF84E39CE0215080409040E2
:10035000E1F700C0000021CF1092C50087E680932E
:10036000C400E1ECF0E0808188618083E2ECF0E0A1
:1003700080818660808308959091C00095FFFCCFB6
:100380008093C6000895CF93DF93EC0103C00E94D1
:10039000BC01219688818111FACFDF91CF91089518
:1003A000CF93DF9300D000D000D0CDB7DEB74AE0C6
:1003B000BE016F5F7F4F0E947D04CE0101960E94B7
:1003C000C30126960FB6F894DEBF0FBECDBFDF91F6
:1003D000CF910895CF93DF93CDB7DEB72F970FB6A8
:1003E000F894DEBF0FBECDBF2AE0AE014F5F5F4F76
:1003F0000E948804CE0101960E94C3012F960FB679
:10040000F894DEBF0FBECDBFDF91CF910895CF939B
:10041000DF9300D000D01F92CDB7DEB740E1BE0120
:100420006F5F7F4F90E00E947D048EE491E00E9418
:10043000C301CE0101960E94C3010F900F900F904F
:100440000F900F90DF91CF910895CF92DF92EF92AE
:10045000FF920F931F93CF93DF9320E030E048EC9F
:1004600052E40E9401040E9444036B017C018B0151
:1004700016950795169507959801ABE7B4E10E948C
:100480006E04EC01D695C795CE010E94D0018EE294
:100490000E94BC0124E62C9FC0012D9F900D1124C9
:1004A000C81AD90A8AE0C816D10418F480E30E9459
:1004B000BC01C6010E94D001DF91CF911F910F9125
:1004C000FF90EF90DF90CF9008955058BB27AA2758
:1004D0000E947D020C94C7030E94B90338F00E9469
:1004E000C00320F039F49F3F19F426F40C94B603AE
:1004F0000EF4E095E7FB0C94B003E92F0E94D803BB
:1005000058F3BA17620773078407950720F079F448
:10051000A6F50C94FA030EF4E0950B2EBA2FA02D3D
:100520000B01B90190010C01CA01A0011124FF27A0
:10053000591B99F0593F50F4503E68F11A16F0409B
:10054000A22F232F342F4427585FF3CF469537959A
:100550002795A795F0405395C9F77EF41F16BA0B5F
:10056000620B730B840BBAF09150A1F0FF0FBB1F0D
:10057000661F771F881FC2F70EC0BA0F621F731F56
:10058000841F48F4879577956795B795F7959E3FB3
:1005900008F0B0CF9395880F08F09927EE0F979544
:1005A000879508950E94E6020C94C7030E94C00339
:1005B00058F00E94B90340F029F45F3F29F00C94F1
:1005C000B00351110C94FB030C94B6030E94D803A2
:1005D00068F39923B1F3552391F3951B550BBB2772
:1005E000AA2762177307840738F09F5F5F4F220FB7
:1005F000331F441FAA1FA9F335D00E2E3AF0E0E8AE
:1006000032D091505040E695001CCAF72BD0FE2FF7
:1006100029D0660F771F881FBB1F2617370748078B
:10062000AB07B0E809F0BB0B802DBF01FF27935843
:100630005F4F3AF09E3F510578F00C94B0030C9454
:10064000FB035F3FE4F3983ED4F386957795679577
:10065000B795F7959F5FC9F7880F911D9695879578
:1006600097F90895E1E0660F771F881FBB1F621797
:1006700073078407BA0720F0621B730B840BBA0B55
:10068000EE1F88F7E09508950E94E00388F09F57D9
:1006900098F0B92F9927B751B0F0E1F0660F771FA6
:1006A000881F991F1AF0BA95C9F714C0B13091F09C
:1006B0000E94FA03B1E008950C94FA03672F782F93
:1006C0008827B85F39F0B93FCCF386957795679561
:1006D000B395D9F73EF490958095709561957F4FCD
:1006E0008F4F9F4F0895E89409C097FB3EF4909573
:1006F0008095709561957F4F8F4F9F4F9923A9F0FB
:10070000F92F96E9BB279395F69587957795679589
:10071000B795F111F8CFFAF4BB0F11F460FF1BC0CD
:100720006F5F7F4F8F4F9F4F16C0882311F096E960
:1007300011C0772321F09EE8872F762F05C066230E
:1007400071F096E8862F70E060E02AF09A95660FC7
:10075000771F881FDAF7880F9695879597F9089580
:1007600097F99F6780E870E060E008959FEF80EC64
:10077000089500240A941616170618060906089507
:1007800000240A9412161306140605060895092E6D
:100790000394000C11F4882352F0BB0F40F4BF2BDC
:1007A00011F460FF04C06F5F7F4F8F4F9F4F08951C
:1007B00057FD9058440F551F59F05F3F71F0479512
:1007C000880F97FB991F61F09F3F79F087950895F7
:1007D000121613061406551FF2CF4695F1DF08C016
:1007E000161617061806991FF1CF86957105610533
:1007F00008940895E894BB2766277727CB0197F9DB
:1008000008950E9414040C94C7030E94B90338F0A1
:100810000E94C00320F0952311F00C94B0030C94B7
:10082000B60311240C94FB030E94D80370F3959F28
:10083000C1F3950F50E0551F629FF001729FBB27D7
:10084000F00DB11D639FAA27F00DB11DAA1F649F73
:100850006627B00DA11D661F829F2227B00DA11D26
:10086000621F739FB00DA11D621F839FA00D611DAC
:10087000221F749F3327A00D611D231F849F600DCD
:10088000211D822F762F6A2F11249F5750409AF0F6
:10089000F1F088234AF0EE0FFF1FBB1F661F771F82
:1008A000881F91505040A9F79E3F510580F00C944D
:1008B000B0030C94FB035F3FE4F3983ED4F38695BA
:1008C00077956795B795F795E7959F5FC1F7FE2BED
:1008D000880F911D9695879597F90895A29FB0016D
:1008E000B39FC001A39F700D811D1124911DB29F64
:1008F000700D811D1124911D0895BB274A3031F4DC
:10090000992322F4BDE2909581959F4F0C94AB04FE
:10091000BB27FA01A62F6217710581059105330BDC
:1009200030FB66F0AA27660F771F881F991FAA1F42
:10093000A21710F0A21B63953850A9F7A05DAA3347
:1009400008F0A95DA19336F7B111B1931082CA01E5
:100950000C94C404BB27FB015527AA27880F991FB5
:10096000AA1FA41710F0A41B83955051B9F7A05DDE
:10097000AA3308F0A95DA193009779F7B111B1935B
:100980001192CB010C94C404DC01FC01672F71911E
:100990007723E1F7329704C07C916D937083629165
:0C09A000AE17BF07C8F30895F894FFCF0E
:1009AC000A526563656976656420746865207365B1
:1009BC006E736F722069640A000A0A52617720769E
:1009CC00616C7565203A200043616C6962726174D8
:1009DC00696F6E2076616C756573203A200A00543D
:1009EC00656D7065726174757265203A200030789F
:0209FC000000F9
:00000001FF
