:100000000C9434000C9455000C9446000C9446005B
:100010000C9446000C9446000C9446000C94460048
:100020000C9446000C9446000C9446000C94460038
:100030000C9446000C9446000C9446000C94460028
:100040000C9446000C9446000C9446000C94460018
:100050000C9446000C9446000C9446000C94460008
:100060000C9446000C94460011241FBECFEFD8E03C
:10007000DEBFCDBF21E0A0E0B1E001C01D92A13004
:10008000B207E1F70E94BB000C9406010C9400003B
:100090008AB18B7F8AB9E9E6F0E080818360808352
:1000A0008DB381608DBB789408951F920F920FB627
:1000B0000F9211248F9381E0809300018F910F9014
:1000C0000FBE0F901F9018958BB182608BB98BB1CA
:1000D000877E8BB908958BB180618BB98BB1857F99
:1000E0008BB908958BB188608BB98BB18D7E8BB93C
:1000F00008958BB180628BB98BB18F7B8BB90895DA
:100100008BB180648BB98BB18F7D8BB908958BB126
:100110008F7B8BB98BB18F7D8BB908950E94720054
:100120000E9479002AEA36EE86E991E021503040BB
:1001300080409040D9F700000E94870024E53DEC04
:100140008DE293E02150304080409040D9F700C0CC
:1001500000C000000E9480002AEA36EE86E991E0A5
:100160002150304080409040D9F700000E94870025
:100170000E94640008958AB18A678AB90E94480083
:100180000E94640080E090E00BC0EFE9FFE031974F
:10019000F1F700C0000020910001213029F0019604
:1001A000883BFBE09F078CF30E946B0080E090E0AF
:1001B0000BC0EFE9FFE03197F1F700C0000020919C
:1001C0000001213029F00196883BFBE09F078CF36A
:1001D0000E94720080E090E00BC0EFE9FFE03197F1
:1001E000F1F700C0000020910001213029F00196B4
:1001F000883BFBE09F078CF380910001813009F080
:10020000BFCF0E948E0010920001BACFF894FFCFAA
:00000001FF
