S02000004C4D5F33355F74656D70657261747572655F73656E736F722E737265639E
S11300000C9434000C9449000C9449000C9449005D
S11300100C9449000C9449000C9449000C94490038
S11300200C9449000C9449000C9449000C94490028
S11300300C9449000C9449000C9449000C94490018
S11300400C9449000C9449000C9449000C94490008
S11300500C9449000C9449000C9449000C944900F8
S11300600C9449000C94490011241FBECFEFD8E032
S1130070DEBFCDBF11E0A0E0B1E0EEE6F7E002C0E4
S113008005900D92A831B107D9F70E9478010C941C
S1130090B5030C940000ECE7F0E090819064908349
S11300A09081907F8770892B8083EAE7F0E08081DC
S11300B080688083808187608083089585B18860AB
S11300C085B985E08A95F1F7000085B1877F85B908
S11300D087EC90E00197F1F700C00000089595B116
S11300E09F7E95B92BB130E1839FC00111242F70FD
S11300F0822B8BB90E945E008FE39FE10197F1F799
S113010000C000000895CF93C82F85B18F7E85B9B4
S11301108BB18F709C2F907F892B8BB90E945E00CE
S11301202BB130E1C39FC0011124922F9F70892B02
S11301308BB90E945E008FE39FE10197F1F700C045
S11301400000CF910895CF93C82F85B1806185B900
S11301508BB18F709C2F907F892B8BB90E945E008E
S11301602BB130E1C39FC0011124922F9F70892BC2
S11301708BB90E945E008FE39FE10197F1F700C005
S11301800000CF91089581E00E9483008FE39FE1F6
S11301900197F1F700C0000008952FEF89EF90E078
S11301A0215080409040E1F700C0000085B1877F76
S11301B085B983E00E946F008FE19EE40197F1F717
S11301C000C0000083E00E946F0087E592E0019781
S11301D0F1F700C0000083E00E946F0087E592E021
S11301E00197F1F700C0000082E00E946F0088E2EE
S11301F00E9483008CE00E94830086E00E948300BA
S11302000E94C3000895CF93DF93EC0103C00E94C2
S1130210A300219688818111FACFDF91CF910895AF
S1130220811106C0862F8F7080580E948300089524
S1130230862F8F7080540E9483000895CF93DF939C
S113024000D000D000D0CDB7DEB74AE0BE016F5F6A
S11302507F4F0E948003CE0101960E9403012696DF
S11302600FB6F894DEBF0FBECDBFDF91CF910895D6
S1130270CF92DF92EF92FF920F931F93CF93DF936E
S113028020E030E048EC52E40E9404030E9447025C
S11302906B017C018B0116950795169507959801BE
S11302A0ABE7B4E10E947103EC01D695C795CE018A
S11302B00E941E018EE20E94A30024E62C9FC0012E
S11302C02D9F900D1124C81AD90A8AE0C816D104AA
S11302D018F480E30E94A300C6010E941E01DF916E
S11302E0CF911F910F91FF90EF90DF90CF900895E1
S11302F080EF8AB984B1886184B980E00E944B00A0
S11303000E94CD0081E00E9483008FE39FE101976A
S1130310F1F700C0000080E091E00E940301EAE7E9
S1130320F0E080818064808380917A0086FDFCCF38
S1130330609178007091790080E090E00E947602EC
S113034020E030E040EA50E40E94040320E030E082
S113035048EC52E40E94040320E030EC4FE754E4FC
S11303600E94D5016B017C0160E081E00E941001D4
S11303708DE091E00E94030160E081E00E941001A1
S1130380C701B6010E9438018FED0E94A30084E1E9
S113039091E00E9403019FEF29E688E191502040FB
S11303A08040E1F700C00000BACF0E94E9010C943C
S11303B0CA020E94C30258F00E94BC0240F029F411
S11303C05F3F29F00C94B30251110C94FE020C947B
S11303D0B9020E94DB0268F39923B1F3552391F328
S11303E0951B550BBB27AA2762177307840738F0A0
S11303F09F5F5F4F220F331F441FAA1FA9F335D0FD
S11304000E2E3AF0E0E832D091505040E695001CB0
S1130410CAF72BD0FE2F29D0660F771F881FBB1F6A
S1130420261737074807AB07B0E809F0BB0B802D48
S1130430BF01FF2793585F4F3AF09E3F510578F074
S11304400C94B3020C94FE025F3FE4F3983ED4F3A1
S1130450869577956795B795F7959F5FC9F7880F48
S1130460911D9695879597F90895E1E0660F771F9A
S1130470881FBB1F621773078407BA0720F0621B2B
S1130480730B840BBA0BEE1F88F7E09508950E9456
S1130490E30288F09F5798F0B92F9927B751B0F02D
S11304A0E1F0660F771F881F991F1AF0BA95C9F7F4
S11304B014C0B13091F00E94FD02B1E008950C9493
S11304C0FD02672F782F8827B85F39F0B93FCCF346
S11304D0869577956795B395D9F73EF49095809571
S11304E0709561957F4F8F4F9F4F0895E89409C091
S11304F097FB3EF490958095709561957F4F8F4F53
S11305009F4F9923A9F0F92F96E9BB279395F69568
S1130510879577956795B795F111F8CFFAF4BB0FE6
S113052011F460FF1BC06F5F7F4F8F4F9F4F16C04A
S1130530882311F096E911C0772321F09EE8872FD4
S1130540762F05C0662371F096E8862F70E060E090
S11305502AF09A95660F771F881FDAF7880F969509
S1130560879597F9089597F99F6780E870E060E0B0
S113057008959FEF80EC089500240A941616170638
S113058018060906089500240A9412161306140680
S113059005060895092E0394000C11F4882352F0E3
S11305A0BB0F40F4BF2B11F460FF04C06F5F7F4F9B
S11305B08F4F9F4F089557FD9058440F551F59F082
S11305C05F3F71F04795880F97FB991F61F09F3F3C
S11305D079F087950895121613061406551FF2CF65
S11305E04695F1DF08C0161617061806991FF1CFB5
S11305F086957105610508940895E894BB276627DC
S11306007727CB0197F908950E9417030C94CA0227
S11306100E94BC0238F00E94C30220F0952311F01E
S11306200C94B3020C94B90211240C94FE020E949F
S1130630DB0270F3959FC1F3950F50E0551F629F45
S1130640F001729FBB27F00DB11D639FAA27F00D27
S1130650B11DAA1F649F6627B00DA11D661F829F4E
S11306602227B00DA11D621F739FB00DA11D621F33
S1130670839FA00D611D221F749F3327A00D611D50
S1130680231F849F600D211D822F762F6A2F112432
S11306909F5750409AF0F1F088234AF0EE0FFF1F65
S11306A0BB1F661F771F881F91505040A9F79E3FBC
S11306B0510580F00C94B3020C94FE025F3FE4F306
S11306C0983ED4F3869577956795B795F795E79512
S11306D09F5FC1F7FE2B880F911D9695879597F91B
S11306E00895A29FB001B39FC001A39F700D811D07
S11306F01124911DB29F700D811D1124911D089527
S1130700BB274A3031F4992322F4BDE290958195B8
S11307109F4F0C948C03BB27FB015527AA27880FF6
S1130720991FAA1FA41710F0A41B83955051B9F761
S1130730A05DAA3308F0A95DA193009779F7B111E0
S1130740B1931192CB010C94A503DC01FC01672F3A
S113075071917723E1F7329704C07C916D93708394
S11107606291AE17BF07C8F30895F894FFCF57
S113076E54656D7065726174757265200020202069
S10B077E2020200020430000AC
S9030000FC
