S01B00007370695F424D503238305F70726573737572652E737265630D
S11300000C9434000C9449000C9449000C9449005D
S11300100C9449000C9449000C9449000C94490038
S11300200C9449000C9449000C9449000C94490028
S11300300C9449000C9449000C9449000C94490018
S11300400C9449000C9449000C9449000C94490008
S11300500C9449000C9449000C9449000C944900F8
S11300600C9449000C94490011241FBECFEFD8E032
S1130070DEBFCDBF11E0A0E0B1E0E6E7FDE002C0E5
S113008005900D92AA32B107D9F70E9487000C940B
S1130090B9060C94000084B18C6284B984B18F7E5B
S11300A084B98CB581658CBD8CB5857F8CBD089574
S11300B08EBD0DB407FEFDCF8EB5089585B18B7F3F
S11300C085B9089585B1846085B90895CF93C82F03
S11300D00E945E008C2F0E9458008AEA0E945800F9
S11300E0C82F0E9462008C2FCF910895CF93DF9385
S11300F0D82FC62F0E945E008D2F0E9458008C2F8F
S11301000E9458000E946200DF91CF910895CF931E
S1130110DF93CDB7DEB7E4970FB6F894DEBF0FBE1A
S1130120CDBF0E9491030E944B0080ED0E946600A7
S11301300E94EC0380E091E00E94A8030E945E000C
S113014088E80E945800F12C0DC00F2D10E08AEAB7
S11301500E945800E1E0F0E0EC0FFD1FE00FF11FFA
S11301608083F39425E02F1580F70E9462008A8132
S113017090E0982F88272981AC01422B5AA349A3E8
S11301802C80312C322C22248B81282A0E8110E0E1
S1130190102F00278D81082B0E945E008EE80E949C
S11301A05800D12C58011D2D0DC0E12EF12C8AEAE6
S11301B00E945800E7E0F0E0EC0FFD1FEE0DFF1D7C
S11301C080831F5F123188F385010E946200888555
S11301D090E0982F88272F81AC01422B5CA34BA37E
S11301E08A8590E0982F88272985AC01422B5EA34D
S11301F04DA38C8590E0982F88272B85AC01422B4A
S113020058A74FA35E855D8F852F90E0982F882790
S11302102D852E8FAC01422B58A34F8F5AA749A787
S1130220888990E0982F88272F85AC01422B5CA702
S11302304BA78A8990E0982F88272989AC01422B03
S11302405EA74DA78C8990E0982F88272B89AC0155
S1130250422B58AB4FA78E8990E0982F88272D8981
S1130260AC01422B5AAB49AB888D90E0982F88277C
S11302702F89AC01422B5CAB4BAB67E284E70E9455
S113028076000E945E008AEF0E9458008AEA0E946B
S11302905800E82E8AEA0E945800F82E8AEA0E9442
S11302A05800D82E0E9462008E2D90E0A0E0B0E0AD
S11302B0AC01BD01032E3CE0440F551F661F771FA0
S11302C03A95D1F7302D8F2D90E0A0E0B0E0880F63
S11302D0991FAA1FBB1F880F991FAA1FBB1F880F36
S11302E0991FAA1FBB1F880F991FAA1FBB1F842B0E
S11302F0952BA62BB72BD694D694D694D694BC0122
S1130300CD016D290E9445054B015C0120E030E0E0
S113031040E858E30E94D3056B017C0129A13AA16E
S1130320B90180E090E00E94450520E030E040E81B
S11303305AE30E94D3059B01AC01C701B6010E9498
S113034037042B013C01B101032C000C880B990BE1
S11303500E9447056B017C019B01AC01C301B20102
S11303600E94D3052B013C0120E030E040E057E33C
S1130370C501B4010E94D3054B015C0120E030E0CB
S113038040E059E3C701B6010E94D3059B01AC01CB
S1130390C501B4010E9437046B017C01B801012E30
S11303A0000C880B990B0E9447059B01AC01C70107
S11303B0B6010E94D3059B01AC01C301B2010E94A6
S11303C038040E9416056B017C010E945E0087EFD1
S11303D00E9458008AEA0E945800A82E8AEA0E94C5
S11303E05800B82E8AEA0E945800982E0E94620093
S11303F08A2D90E0A0E0B0E0AC01BD01032E3CE00A
S1130400440F551F661F771F3A95D1F7302D8B2D5A
S113041090E0A0E0B0E0880F991FAA1FBB1F880FCF
S1130420991FAA1FBB1F880F991FAA1FBB1F880FE4
S1130430991FAA1FBB1F842B952BA62BB72B969411
S11304409694969496942C013D014928C701B601CF
S11304500E94450520E030E040E05FE30E94D305C0
S113046020E030E04AE757E40E9437046B017C0146
S11304709B01AC010E94D3054B015C014DA55EA517
S1130480BA01550F880B990B0E94470520E030E014
S113049040E058E30E94D3059B01AC01C501B401BF
S11304A00E94D30520E030E040E85EE30E94D305DB
S11304B04B015C012BA53CA5B901330F880B990BAB
S11304C00E9447059B01AC010E9438049B01AC01CA
S11304D0C701B6010E94D3059B01AC01C501B4015B
S11304E00E9438044B015C0149A55AA5BA01550F75
S11304F0880B990B0E94470520E030E040E857E460
S11305000E94D3059B01AC01C501B4010E943804CB
S11305104B015C012FA138A5B901330F880B990B4E
S11305200E9447059B01AC01C701B6010E94D30597
S1130530698F7A8F8B8F9C8F20E030E040E056E308
S1130540C701B6010E94D3056B017C019B01AC017C
S1130550698D7A8D8B8D9C8D0E94D305698F7A8FDE
S11305608B8F9C8F4DA15EA1BA01550F880B990BFF
S11305700E9447059B01AC01C701B6010E94D30547
S11305809B01AC01698D7A8D8B8D9C8D0E94380402
S113059020E030E040E058E30E94D30520E030E062
S11305A040E85FE30E9438046B017C012BA13CA16D
S11305B0B90180E090E00E9445059B01AC01C701B0
S11305C0B6010E94D3056B017C01C301B2010E94F4
S11305D045059B01AC0160E070E080E899E40E946D
S11305E037042B013C0120E030E040E859E3C50129
S11305F0B4010E94D3059B01AC01C301B2010E9466
S113060037044B015C01A701960160E070E583ECBF
S113061095E40E94A4049B01AC01C501B4010E94AD
S1130620D3056B017C014BA95CA9BA01550F880B5A
S1130630990B0E9447059B01AC01C701B6010E94BA
S1130640D3054B015C0120E030E040E050E3C701FA
S1130650B6010E94D3059B01AC01C501B4010E94FF
S1130660D3054B015C0129A93AA9B901330F880BC1
S1130670990B0E9447059B01AC01C701B6010E947A
S1130680D30520E030E040E058E30E94D3059B010D
S1130690AC01C501B4010E9438044B015C014FA5B3
S11306A058A9BA01550F880B990B0E9447059B0165
S11306B0AC01C501B4010E94380420E030E040E8F8
S11306C05DE30E94D3059B01AC01C701B6010E9402
S11306D038046B017C0189E191E00E94A803C70101
S11306E0B6010E940A048AE00E94A1038F8D98A19A
S11306F00E94B5038AE00E94A1038E8D0E94EC0340
S113070084E291E00E94A8038D8D0E94EC035FEFC8
S113071089E698E1515080409040E1F700C0000024
S1130720B0CD1092C50087E68093C400E1ECF0E000
S1130730808188618083E2ECF0E080818660808340
S113074008959091C00095FFFCCF8093C600089552
S1130750CF93DF93EC0103C00E94A103219688810B
S11307608111FACFDF91CF910895CF93DF9300D019
S113077000D000D0CDB7DEB74AE0BE016F5F7F4F37
S11307800E946206CE0101960E94A80326960FB627
S1130790F894DEBF0FBECDBFDF91CF910895CF9304
S11307A0DF93CDB7DEB72F970FB6F894DEBF0FBE39
S11307B0CDBF2AE0AE014F5F5F4F0E946D06CE01B0
S11307C001960E94A8032F960FB6F894DEBF0FBEC1
S11307D0CDBFDF91CF910895CF93DF9300D000D0A8
S11307E01F92CDB7DEB740E1BE016F5F7F4F90E04F
S11307F00E94620686E291E00E94A803CE0101965F
S11308000E94A8030F900F900F900F900F90DF910C
S1130810CF910895CF92DF92EF92FF9220E030E0E3
S113082048EC52E40E94D3050E94160524E630E009
S113083040E050E00E9440066B017C01CA01B9010E
S11308400E94CF038EE20E94A1038AE0C816D1045D
S1130850E104F10418F480E30E94A103C701B60186
S11308600E94CF03FF90EF90DF90CF9008955058EF
S1130870BB27AA270E944F040C9499050E948B055C
S113088038F00E94920520F039F49F3F19F426F4C1
S11308900C9488050EF4E095E7FB0C948205E92F8F
S11308A00E94AA0558F3BA176207730784079507CD
S11308B020F079F4A6F50C94CC050EF4E0950B2EFB
S11308C0BA2FA02D0B01B90190010C01CA01A0019E
S11308D01124FF27591B99F0593F50F4503E68F1F9
S11308E01A16F040A22F232F342F4427585FF3CF3A
S11308F0469537952795A795F0405395C9F77EF40B
S11309001F16BA0B620B730B840BBAF09150A1F053
S1130910FF0FBB1F661F771F881FC2F70EC0BA0FD9
S1130920621F731F841F48F4879577956795B79561
S1130930F7959E3F08F0B0CF9395880F08F099275C
S1130940EE0F9795879508950E94B8040C94990525
S11309500E94920558F00E948B0540F029F45F3FF5
S113096029F00C94820551110C94CD050C94880542
S11309700E94AA0568F39923B1F3552391F3951BBB
S1130980550BBB27AA2762177307840738F09F5FAC
S11309905F4F220F331F441FAA1FA9F335D00E2E19
S11309A03AF0E0E832D091505040E695001CCAF786
S11309B02BD0FE2F29D0660F771F881FBB1F261749
S11309C037074807AB07B0E809F0BB0B802DBF0120
S11309D0FF2793585F4F3AF09E3F510578F00C94EF
S11309E082050C94CD055F3FE4F3983ED4F38695DD
S11309F077956795B795F7959F5FC9F7880F911D10
S1130A009695879597F90895E1E0660F771F881FFB
S1130A10BB1F621773078407BA0720F0621B730BAE
S1130A20840BBA0BEE1F88F7E09508950E94B20577
S1130A3088F09F5798F0B92F9927B751B0F0E1F09B
S1130A40660F771F881F991F1AF0BA95C9F714C04B
S1130A50B13091F00E94CC05B1E008950C94CC051E
S1130A60672F782F8827B85F39F0B93FCCF3869584
S1130A7077956795B395D9F73EF4909580957095E1
S1130A8061957F4F8F4F9F4F0895E89409C097FB5E
S1130A903EF490958095709561957F4F8F4F9F4F51
S1130AA09923A9F0F92F96E9BB279395F695879595
S1130AB077956795B795F111F8CFFAF4BB0F11F458
S1130AC060FF1BC06F5F7F4F8F4F9F4F16C08823FF
S1130AD011F096E911C0772321F09EE8872F762F35
S1130AE005C0662371F096E8862F70E060E02AF076
S1130AF09A95660F771F881FDAF7880F9695879562
S1130B0097F9089597F99F6780E870E060E0089589
S1130B109FEF80EC089500240A9416161706180611
S1130B200906089500240A941216130614060506ED
S1130B300895092E0394000C11F4882352F0BB0F7E
S1130B4040F4BF2B11F460FF04C06F5F7F4F8F4FE1
S1130B509F4F089557FD9058440F551F59F05F3F1C
S1130B6071F04795880F97FB991F61F09F3F79F0CB
S1130B7087950895121613061406551FF2CF46954D
S1130B80F1DF08C0161617061806991FF1CF8695CF
S1130B907105610508940895E894BB2766277727B3
S1130BA0CB0197F908950E94E6050C9499050E94DB
S1130BB08B0538F00E94920520F0952311F00C94D7
S1130BC082050C94880511240C94CD050E94AA0575
S1130BD070F3959FC1F3950F50E0551F629FF0018C
S1130BE0729FBB27F00DB11D639FAA27F00DB11DA5
S1130BF0AA1F649F6627B00DA11D661F829F22272E
S1130C00B00DA11D621F739FB00DA11D621F839FB4
S1130C10A00D611D221F749F3327A00D611D231F8A
S1130C20849F600D211D822F762F6A2F11249F57D8
S1130C3050409AF0F1F088234AF0EE0FFF1FBB1FDB
S1130C40661F771F881F91505040A9F79E3F51059A
S1130C5080F00C9482050C94CD055F3FE4F3983E3C
S1130C60D4F3869577956795B795F795E7959F5F44
S1130C70C1F7FE2B880F911D9695879597F90895D6
S1130C80A1E21A2EAA1BBB1BFD010DC0AA1FBB1F8C
S1130C90EE1FFF1FA217B307E407F50720F0A21BFE
S1130CA0B30BE40BF50B661F771F881F991F1A946B
S1130CB069F760957095809590959B01AC01BD0195
S1130CC0CF010895BB274A3031F4992322F4BDE2C1
S1130CD0909581959F4F0C949006BB27FA01A62FFF
S1130CE06217710581059105330B30FB66F0AA2765
S1130CF0660F771F881F991FAA1FA21710F0A21B47
S1130D0063953850A9F7A05DAA3308F0A95DA193B3
S1130D1036F7B111B1931082CA010C94A906BB270E
S1130D20FB015527AA27880F991FAA1FA41710F0A3
S1130D30A41B83955051B9F7A05DAA3308F0A95DAF
S1130D40A193009779F7B111B1931192CB010C944F
S1130D50A906DC01FC01672F71917723E1F7329733
S1130D6004C07C916D9370836291AE17BF07C8F382
S1090D700895F894FFCF82
S1130D760A526563656976656420746865207365DF
S1130D866E736F722069640A000A50726573737514
S10D0D967265203A20003078000056
S9030000FC
