:100000000C9434000C943E000C943E000C943E0082
:100010000C943E000C943E000C943E000C943E0068
:100020000C943E000C943E000C943E000C943E0058
:100030000C943E000C943E000C943E000C943E0048
:100040000C943E000C943E000C943E000C943E0038
:100050000C943E000C943E000C943E000C943E0028
:100060000C943E000C943E0011241FBECFEFD8E04C
:10007000DEBFCDBF0E9468000C9473000C9400009A
:1000800084B1806484B9089516BC84B5826084BD4F
:1000900084B58E7F84BD85B5877F85BD89EF87BD9B
:1000A00085B5836085BD0895AC0120E030E007C0D0
:1000B000A99BFECF95B3926095BB2F5F3F4F24174E
:1000C0003507B0F3089595B180E4892785B908957F
:1000D0000E9440000E9444000E94630088EE93E06A
:0A00E0000E945400F9CFF894FFCFFE
:00000001FF
