S01B000065787465726E616C5F696E74657272757074732E73726563E7
S11300000C9434000C9440000C943E000C943E007C
S11300100C943E000C943E000C943E000C943E0064
S11300200C943E000C943E000C943E000C943E0054
S11300300C943E000C943E000C943E000C943E0044
S11300400C943E000C943E000C943E000C943E0034
S11300500C943E000C943E000C943E000C943E0024
S11300600C943E000C943E0011241FBECFEFD8E048
S1130070DEBFCDBF0E945F000C947F000C94000093
S11300801F920F920FB60F9211242F938F939F9369
S113009085B1806285B985B18F7E85B92FEF8BE7F5
S11300A092E9215080409040E1F700C000009F9108
S11300B08F912F910F900FBE0F901F90189584B1C0
S11300C0806384B98AB18B7F8AB9E9E6F0E08081E4
S11300D0836080838DB381608DBB789485B18F7D7F
S11300E085B995B180E1892785B92FEF89E698E133
S11300F0215080409040E1F700C00000EFCFF89419
S1050100FFCF2B
S9030000FC
