S029000074696D6572305F70776D666173745F76617279696E675F6272696768746E6573732E7372656352
S11300000C9434000C943E000C943E000C943E007E
S11300100C943E000C943E000C943E000C943E0064
S11300200C943E000C943E000C943E000C943E0054
S11300300C943E000C943E000C943E000C943E0044
S11300400C943E000C943E000C943E000C943E0034
S11300500C943E000C943E000C943E000C943E0024
S11300600C943E000C943E0011241FBECFEFD8E048
S1130070DEBFCDBF0E9450000C9478000C940000A9
S113008084B5836084BD84B5806284BD84B58F7E6D
S113009084BD85B5816085BD85B5897F85BD08959D
S11300A08AB180628AB90E94400080E090E00BC06F
S11300B088BD2FEF31EE44E0215030404040E1F75D
S11300C000C0000001968F3F910591F38CF38FEFF0
S11300D090E00BC088BD2FEF31EE44E0215030405A
S11300E04040E1F700C00000019799239CF7DDCF61
S10700F0F894FFCFAE
S9030000FC
