:100000000C9434000C9449000C9449000C94490061
:100010000C9449000C9449000C9449000C9449003C
:100020000C9449000C9449000C9449000C9449002C
:100030000C9449000C9449000C9449000C9449001C
:100040000C9449000C9449000C9449000C9449000C
:100050000C9449000C9449000C9449000C944900FC
:100060000C9449000C94490011241FBECFEFD8E036
:10007000DEBFCDBF11E0A0E0B1E0EAE3F1E002C0F5
:1000800005900D92A630B107D9F70E9472000C942A
:100090009B000C9400001092C50087E68093C4007A
:1000A000E1ECF0E0808188618083E2ECF0E0808127
:1000B000866080838081877C808308959091C000D2
:1000C00095FFFCCF8093C6000895CF93DF93EC019A
:1000D00003C00E945E00219688818111FACFDF91D2
:1000E000CF910895CF93DF9300D000D000D0CDB74B
:1000F000DEB786E0E0E0F1E0DE01119601900D92BE
:100100008A95E1F70E944B0081E40E945E008AE03C
:100110000E945E00CE0101960E9465008AE00E9466
:100120005E002FEF83ED90E3215080409040E1F797
:0A01300000C00000E9CFF894FFCFF3
:06013A0048656C6C6F00CB
:00000001FF
