S010000064635F6D6F746F722E73726563BD
S11300000C9434000C943E000C943E000C943E007E
S11300100C943E000C943E000C943E000C943E0064
S11300200C943E000C943E000C943E000C943E0054
S11300300C943E000C943E000C943E000C943E0044
S11300400C943E000C943E000C943E000C943E0034
S11300500C943E000C943E000C943E000C943E0024
S11300600C943E000C943E0011241FBECFEFD8E048
S1130070DEBFCDBF0E9470000C947C000C94000085
S11300808BB182608BB98BB18B7F8BB92FEF83E2FD
S113009094EF215080409040E1F700C000000895A3
S11300A08BB18D7F8BB98BB184608BB92FEF83E2D9
S11300B094EF215080409040E1F700C00000089583
S11300C08BB18D7F8BB98BB18B7F8BB92FEF8BE786
S11300D092E9215080409040E1F700C0000008956B
S11300E08AB186608AB90E9440000E9460000E9422
S10F00F050000E946000F7CFF894FFCF8E
S9030000FC
